:100000000C949A020C94E1020C94E1020C94E1022B
:100010000C94E1020C94E1020C94E1020C94E102D4
:100020000C94E1020C94E1020C94842D0C94582E53
:100030000C94AA280C94E1020C94E1020C94E102C5
:100040000C94E1020C94E1020C94E1020C94E102A4
:100050000C94E1020C941D290C94E1020C94E10231
:100060000C94E1020C94E1020C94E1020C94E10284
:100070000C94E1020C94E1020C94E1020C94E10274
:100080000C94E1020C94E1020C94E1020C94E10264
:100090000C94E1020C94E1020C94E1020C94E10254
:1000A0000C94E1020C94E1020C94E102290014008A
:1000B0001A000800150017001C0018000C001200A0
:1000C00013002A002B0004001600070009000A0094
:1000D0000B000D000E000F0033002800E1001D0092
:1000E0001B00060019000500110010003600370043
:1000F0003800E500E000E300E200035801542C0062
:10010000000002545000510052004F0035001E0004
:100110001F002000210022002300240025002600CB
:1001200027002F00A9002D002E0001000100010072
:10013000010001000100300031003400AA00AC00D1
:10014000AB00AE0001000100010001000100010050
:1001500001000100A80001000100010001000100F0
:100160000000E6000100010001000100010087001D
:10017000870201003A003B003C003D003E003F008A
:10018000E6000100390001000100010040004100CB
:1001900042004300440045000100010001006400EA
:1001A000010001000100010001004C0049000100B4
:1001B0000100010001000100010001000100010037
:1001C000000001004A004B004E004D00CB5CCA5CB1
:1001D000C05CC15C01000100010056005F006000CE
:1001E00061002A00C75CC65CC35CC45C01000100FE
:1001F000010054005C005D005E005800C95CC85CF2
:10020000CD5CCC5C0100010001002E0059005A00B9
:100210005B002B000453BE5CBF5C01000100055372
:100220000000010062006300570055000100005CFF
:10023000015C01000100010001000100010001005A
:1002400001000100010001000100010001000100A6
:100250000100010001000100010001000100010096
:100260000100010001000100010001000100010086
:100270000100010004530100010001000100010020
:100280000000010001000100010001000100010067
:100290000100010001000100010001000100010056
:1002A0000100010001000100010001000100010046
:1002B0000100010001000100010001000100010036
:1002C0000100010001000100010001000100010026
:1002D000010001000100010001002C000100055394
:1002E0000000010001000100010001000001010106
:1002F00001010101010102020202020202020203E3
:1003000003030303030303040404040404040505B2
:100310000505050606060606070707070708080875
:1003200008090909090A0A0A0B0B0B0C0C0C0D0D24
:100330000D0E0E0E0F0F0F101011111112121313BC
:100340001414151516161717181819191A1A1B1B35
:100350001C1D1D1E1E1F2020212222232424252691
:1003600026272829292A2B2C2D2D2E2F30313232C9
:10037000333435363738393A3B3C3D3E3F404142D5
:10038000434445464748494A4C4D4E4F50515354BB
:10039000555658595A5B5D5E5F616264656668696F
:1003A0006B6C6D6F7072737577787A7B7D7E8082EF
:1003B000838587888A8C8E8F91939596989A9C9E38
:1003C000A0A2A3A5A7A9ABADAFB1B3B5B7BABCBE48
:1003D000C0C2C4C6C9CBCDCFD1D4D6D8DBDDDFE215
:1003E000E4E7E9EBEEF0F3F5F8FAFDFF2203420053
:1003F0004D0034003000200048006F00740073008E
:1004000077006100700020005200470042000000A9
:1004100016034B005000520065007000750062002A
:100420006C006900630000000403090409023B003A
:10043000020100A0FA0904000001030101000921E2
:10044000110100012240000705810308000A090488
:1004500001000103000000092111010001227B00BD
:100460000705820320000A12010002000000085064
:100470004B303401000102000105010902A1018590
:10048000020901A100050919012908150025019596
:1004900008750181020501093009311581257F9513
:1004A000027508810609381581257F950175088137
:1004B00006050C0A38021581257F9501750881060D
:1004C000C0C005010980A101850319012AB70015E3
:1004D0000126B700950175108100C0050C0901A126
:1004E00001850419012AA002150126A002950175B3
:1004F000108100C005010906A101050719E029E7DF
:100500001500250195087501810295017508810185
:100510000507190029FF150026FF009506750881BB
:1005200000050819012905950575019102950175C8
:10053000039101C011241FBECFEFDAE0DEBFCDBFB3
:1005400004B603FE27C08091400490914104A0911D
:100550004204B09143048730904BA740B04BD1F494
:1005600010924004109241041092420410924304ED
:1005700014BE84B7877F84BF0FB6F894A895809186
:100580006000886180936000109260000FBEE0E020
:10059000F8E3099512E0A0E0B1E0E2E6F3E602C07C
:1005A00005900D92A437B107D9F724E0A4E7B2E093
:1005B00001C01D92A034B207E1F70E9438130C94D9
:1005C0005F310C94000081E00E94B9230C945628FE
:1005D00080E00E94B9230C949E2881E0089581E078
:1005E00008950C94EF0208950C94F3021F93CF9397
:1005F000DF9300D000D00F92CDB7DEB749835A8386
:100600006B833091760289819A8131111DC06623F6
:10061000B9F02223A9F00E942F09182F682F898191
:100620009A810E94DB0869817A81812F0F900F9057
:100630000F900F900F90DF91CF911F910C94830F2B
:100640000E940709182FEFCF0E942F0969817A8134
:10065000EDCFFC01262F408151816281738184811D
:100660000C94F60281E00895CF93DF93EC0160E0F3
:100670000E942903BE01DF91CF910C94F4020E94E5
:10068000AA110E94B8030E945D230C94CF110C9410
:10069000D21108950E9484070E9449032FEF84E33A
:1006A0009CE0215080409040E1F700C000000C9495
:1006B00041290F931F93CF93DF938C0161E00E9438
:1006C0002903EC01B8010E94F1028823D9F1B80195
:1006D000CE010E940C268823A9F1B801CE010E9408
:1006E0005E26882379F1B801CE010E9481278823F4
:1006F00049F1B801CE010E94DA24882319F1F801EA
:100700008281882361F0CB35FDE5DF0721F170F4AC
:10071000C115ECE5DE07A1F0CF3DDC45C9F0C8010D
:10072000DF91CF911F910F910C94ED02CC358DE5A7
:10073000D807A1F0CD35DD4591F70E940C0DEFCF24
:100740000E944A0380E0DF91CF911F910F9108959D
:100750000E94830EF7CF0E94150DE1CF0E94180D65
:10076000DECF08950C94B10381E008950C94B40396
:100770000895CF93C82F0E94B2038C2FCF910C9471
:10078000B603CF93DF93CDB7DEB72B970FB6F894B0
:10079000DEBF0FBECDBF4F83588769877A878B87AF
:1007A00061110E943B0D1E821D8285E0FE0137967D
:1007B000DE01119601900D928A95E1F78C819D8161
:1007C000892B89F449815A816B817C818D819E813D
:1007D0000E943B0C2B960FB6F894DEBF0FBECDBF28
:1007E000DF91CF91089589819A8189238F3F51F3B9
:1007F000CE0101960E9432038111E4CFEBCFFC01C0
:10080000808191810C947109CF93C82F882309F4BA
:100810008BC08238C1F40E94B02781FD85C089E376
:100820000E94D50C0E946B0D2FEF81EE94E02150B9
:1008300080409040E1F700C0000089E30E94DC0C9A
:10084000CF910C946B0D8338A1F40E94B02780FDEA
:100850006BC083E50E94D50C0E946B0D2FEF81EEDB
:1008600094E0215080409040E1F700C0000083E513
:10087000E5CF8438A1F40E94B02782FD55C087E4FB
:100880000E94D50C0E946B0D2FEF81EE94E0215059
:1008900080409040E1F700C0000087E4CFCF8CEFAC
:1008A0008C0F813A90F46C2F8091D3019091D401F8
:1008B0000E941328882329F08C2F0E94DC0C0E94B0
:1008C0006B0D8C2F0E94D50CBBCF80E28C0F883033
:1008D00048F4C77081E001C0880FCA95EAF70E940A
:1008E0001E0DAECFEBE5EC0FE33040F4F0E0E15E3F
:1008F000FD4F808190E0CF910C94D527E8E5EC0F77
:10090000E73150F4F0E0EE0FFF1FEF50FE4F808113
:100910009181CF910C94EB27CD3E30F08C2F0E942B
:10092000C613CF910C949914CF910895882309F49C
:1009300052C0823871F40E94B02781FF4CC089E315
:100940000E94D50C0E946B0D89E30E94DC0C0C9474
:100950006B0D833859F40E94B02780FF3CC083E5BB
:100960000E94D50C0E946B0D83E5EFCF843859F4BB
:100970000E94B02782FF2FC087E40E94D50C0E94FE
:100980006B0D87E4E2CF9CEF980F913AF0F290E282
:10099000980F983050F4877091E001C0990F8A95B4
:1009A000EAF7892F0E94240DD2CF9BE5980F933050
:1009B00020F490E080E00C94D52798E5980F9731CB
:1009C00020F490E080E00C94EB278D3E20F00E9414
:1009D00020140C94991408951F93CF93DF93182F2C
:1009E000EB010E940404209731F4812FDF91CF9115
:1009F0001F910C9496048FE99FE00197F1F700C0D6
:100A000000002197F0CF70E060E0893311F460E5D9
:100A100070E00C94EC04882321F00E941E0D0C94CD
:100A20006B0D0895882321F00E94240D0C946B0D0A
:100A30000895BF92CF92DF92EF92FF920F931F9390
:100A4000CF93DF936C01D62FC72FFC011281058154
:100A500002950F700E94F30CE82E8823A1F0E12E7E
:100A6000112389F08C2F807F803429F080E28D0F54
:100A7000E12C883040F082E00E94BC0D0E94F30C13
:100A800091E0E82EE926BC2EB2949FE0B922EB2D2E
:100A9000F0E0EF59FE4C0C9451300C2F0F70C07FDA
:100AA00011F00295007F1123A9F0002359F080E294
:100AB0008D0F883010F0D11109C0802F0E941E0DBB
:100AC0000E946B0D8D2F0E94040414C0802F0E9481
:100AD0002E0DF6CF8D2F0E949604002359F080E250
:100AE0008D0F883010F0D1112CC0802F0E94240D62
:100AF0000E946B0D2B2D2850330B2430310520F430
:100B00000E94B0270E94B903EE2009F49EC10E9402
:100B1000EF0C80FD9AC1F60112820E94E90C0E943E
:100B20003F08C6010E9446070E94E90CDF91CF9161
:100B30001F910F91FF90EF90DF90CF90BF900C949A
:100B40006008802F0E94340DD3CFFC2FFF70FF2E42
:100B5000C07FC03219F0F29480EFF822DD2369F0F3
:100B6000D13049F1112391F1002351F1F601858132
:100B700080FFA8CF8F70858323C0112381F00111DE
:100B800006C00E944E0D8F290E940B05B3CF013085
:100B9000C1F70E944E0D8F290E94540DABCF011159
:100BA00006C00E94610D8F2D0E941205A3CF013057
:100BB00009F4A0CFF6CF112329F0033008F09ACF23
:100BC0008F2DE2CF023008F095CFEDCF002359F3FF
:100BD000D93349F4FFEF27EE33E0F15020403040A5
:100BE000E1F700C000008D2F0E94960483CF8C2F68
:100BF00086958695837069F0813009F07BCF8D2FC3
:100C00009C2F9370111102C090E080E00E94EB27AE
:100C100071CF8D2F9C2F9370111102C090E080E056
:100C20000E94D52767CF8D2F112329F00E94C6136C
:100C30000E9499145FCF0E942014FACF8C2F8370EA
:100C400009F041C0111156CF4D2F4295469547707E
:100C5000440F440F0D2F0F7010E030E020E0042E01
:100C600004C0000F111F221F331F0A94D2F760E047
:100C700070E0CB01D4FF0FC06FE070E080E090E047
:100C800004C0660F771F881F991F4A95D2F7609599
:100C9000709580959095C695C695C370602B712B05
:100CA000822B932BC23049F058F4C13019F00E94C6
:100CB000F10720CF0E94DF071DCF0E9403081ACF43
:100CC0000E94DD0717CF8695112311F08C2F8170BC
:100CD000882309F40FCF4D2F429546954770440F56
:100CE000440F0D2F0F7010E030E020E0042E04C000
:100CF000000F111F221F331F0A94D2F760E070E02B
:100D0000CB01D4FF0FC06FE070E080E090E004C042
:100D1000660F771F881F991F4A95D2F760957095C7
:100D200080959095C695C695C370602B712B822BCC
:100D3000932BC23049F058F4C13019F00E94B60824
:100D4000D9CE0E94A408D6CE0E94C808D3CE0E9455
:100D50001908D0CECF70112329F08C2F0E943F08A4
:100D60008D2F12CF8D2F0E9412058C2F0E946008AC
:100D7000C1CED23F89F160F4D03FC9F0D13F29F113
:100D8000112309F442C001119DCE8C2F8F7121C017
:100D9000D33F39F1D43FA1F7112369F1CF718C2FE3
:100DA0000E943F0863E08C2F0E94A10DA3CE112367
:100DB00041F0023008F09ECE8C2F8F710E94830884
:100DC00099CE033008F096CEF7CF8C2F8F71112378
:100DD00069F20E943F088ECE8C2F8F711123C9F3C8
:100DE000C5CF112329F08C2F8F710E942A0882CE43
:100DF0000E9425087FCE81E00E94BC0D023008F4DD
:100E000079CE82E00E94BC0D75CE002359F0D93313
:100E100009F0E9CE8FEF97EEE3E081509040E0409B
:100E2000E1F7DFCE8C2F8F71A1CF4C2F4F706D2F3C
:100E3000C6010E947F0F0E949F095CCE4C2F4F700D
:100E40006D2FC6010E94820F55CEDF91CF911F9169
:100E50000F91FF90EF90DF90CF90BF9008950F9388
:100E60001F93CF93DF93EC01688179818A810E947F
:100E70007B098C010E94DA080E94DC07B801CE01D0
:100E8000DF91CF911F910F910C941905CF93DF93B0
:100E9000EC018B819C81892B29F0888199818923A0
:100EA0008F3F59F4DF91CF910895CE010E942F0713
:100EB000CE01DF91CF910C943403CE010E945903EF
:100EC0008111F3CF0E94F30C882361F38A81882378
:100ED00049F382E0DF91CF910C94BC0D90E080E06B
:100EE0000E94D52790E080E00E94EB270E943B0DF6
:100EF0000E944B0D0E946B0D0E94C0150C9499141A
:100F00000E94E30C0C946E070E942B0D0C9480073A
:100F1000E92FE295EF70E250EE3070F4F0E0EF5818
:100F2000FE4C0C945130803F19F020F4883E20F4A0
:100F300081E00895843FE1F380E00895883EC0F3A6
:100F4000813FD1F7F5CF93FB882780F90895FC0105
:100F5000808191810E9471090C948807CF93DF935F
:100F600000D000D00F92CDB7DEB70F900F900F904A
:100F70000F900F90DF91CF910895CF93DF9300D022
:100F800000D000D0CDB7DEB726960FB6F894DEBFFE
:100F90000FBECDBFDF91CF91089508950C94CD077A
:100FA0000E94CE076093990270939A0280939B02ED
:100FB00090939C020C946E0708950C94D0070F93A5
:100FC0001F930091990210919A0220919B023091F7
:100FD0009C02602B712B822B932B1F910F910C94F1
:100FE000D0070F931F930091990210919A022091BC
:100FF0009B0230919C0260237123822393231F91D3
:101000000F910C94D0070F931F93009199021091A8
:101010009A0220919B0230919C02602771278227BF
:1010200093271F910F910C94D0070C94CD070C942B
:1010300015080E941708609395027093960280939A
:101040009702909398020C946E0760E070E0CB01D9
:101050000C9419080F931F9341E050E060E070E09A
:101060008A019B0104C0000F111F221F331F8A95A4
:10107000D2F7C901B8011F910F910C9419080F9371
:101080001F9341E050E060E070E004C0440F551F42
:10109000661F771F8A95D2F78091950290919602EC
:1010A000A0919702B09198028A019B01082B192BFD
:1010B0002A2B3B2BC901B8011F910F910C941908E1
:1010C0000F931F9341E050E060E070E004C0440FD4
:1010D000551F661F771F8A95D2F7CB01BA0160951D
:1010E00070958095909500919502109196022091AF
:1010F00097023091980260237123822393231F91DA
:101100000F910C9419080F931F9341E050E060E099
:1011100070E004C0440F551F661F771F8A95D2F7F1
:101120008091950290919602A0919702B0919802B9
:101130008A019B01082719272A273B27C901B801E3
:101140001F910F910C9419080F931F930091950212
:10115000109196022091970230919802602B712B8A
:10116000822B932B1F910F910C9419080F931F93AF
:101170000091950210919602209197023091980269
:1011800060237123822393231F910F910C941908DC
:101190000F931F9300919502109196022091970250
:1011A0003091980260277127822793271F910F9112
:1011B0000C94190808952CE0929F800D1124982F0B
:1011C000977041E001C0440F9A95EAF7869586959D
:1011D000869595E0899FF0011124E958FD4F90E034
:1011E00080E070E05191DF0111979B01082E02C051
:1011F000369527950A94E2F7217021952527242317
:1012000025272C9301968530910561F708952CE0F0
:10121000929F800D1124982F9770869586958695BC
:1012200025E0829FF0011124E958FD4F50E040E095
:1012300080E0219130E0092E02C0369527950A946E
:10124000E2F721703327042E01C0220F0A94EAF737
:10125000822B4F5F5F4F4530510559F70895BF927C
:10126000CF92DF92EF92FF920F931F93CF93DF9372
:101270008C01C0909502D0909602E0909702F09079
:1012800098028091990290919A02A0919B02B0914C
:101290009C02C82AD92AEA2AFB2ACFE1D0E0BC2E38
:1012A000D701C6010C2E04C0B695A79597958795D2
:1012B0000A94D2F780FD0EC0219788F7B12C8B2DB0
:1012C000DF91CF911F910F91FF90EF90DF90CF9022
:1012D000BF900895B8018C2F0E94B210019761F35E
:1012E000EECFCF93DF93EC010E942F09BE01DF9177
:1012F000CF910C94B2101F93CF93DF93EB01909199
:101300007602992331F0CB01DF91CF911F910C949C
:101310007109882379F0CB010E942F09182F682FBB
:10132000CE010E94DB08BE01812FDF91CF911F917A
:101330000C94B210CB010E940709182FF4CFEF9242
:10134000FF920F931F93CF93DF938C01892B81F032
:10135000F12CEE24E394E8012196F801849184377E
:1013600070F4843008F05FC08130B1F08230A1F1B8
:10137000DF91CF911F910F91FF90EF9008958537E6
:1013800009F44CC008F43DC09CE7980F903780F7F3
:101390008F770E94960449C00E5F1F4FFE01849113
:1013A00090E2980F983060F48770FE2D01C0FF0F17
:1013B0008A95EAF78F2F0E943E0D0E946B0D02C0A6
:1013C0000E9404048F2D815030F2EFE9FFE0319745
:1013D000F1F700C00000F7CF0E5F1F4FFE018491B0
:1013E00090E2980F983050F48770FE2D01C0FF0FE7
:1013F0008A95EAF78F2F0E94440DDFCF0E94960452
:10140000E1CF0E5F1F4FFE01C491C150D8F28FE9AA
:101410009FE00197F1F700C00000F7CF0E5F1F4F6C
:10142000FE01F490CFCF0E9404048E01CBCF1F9316
:10143000CF93DF93C0919D0216E080919E028C13A2
:1014400004C0DF91CF911F910895D0E01C9FF0015F
:101450001D9FF00D1124E156FD4F408151816281A5
:101460007381848195810E94BD072196C770E5CF65
:101470004091CF025091D0026091D1027091D2027E
:101480008091D3029091D4020C94BD071F93CF9307
:10149000DF938091D402807FA9F48091D1028823C8
:1014A00089F080919D02C0919E026091CF0270915F
:1014B000D002A091D202B091D302D62FD72316E04A
:1014C000C81304C0DF91CF911F91089590E0109749
:1014D00011F0DF3F19F401968770F2CF189F900149
:1014E000199F300D1124F901E156FD4F4181471339
:1014F000F2CF40814613EFCF42814111ECCF4381BF
:1015000054814A1B5B0B483C510528F78091D4025B
:101510008F7080618093D402F901EC55FD4F80817A
:101520008F70806180838FEC92E00E944607DF918C
:10153000CF911F910C94170AAF92BF92CF92DF9276
:10154000EF92FF920F931F93CF93DF93CDB7DEB748
:1015500061970FB6F894DEBF0FBECDBF8C0185E05A
:10156000F801DE011D9601900D928A95E1F7F801D0
:10157000E2808FECC82E82E0D82E6091D20270916A
:10158000D3026115710509F45AC19091CF022091DF
:10159000D002892F82238F3F09F451C140815181AC
:1015A000A380B480F090D102F501E61BF70BFF2079
:1015B00009F4F6C08091D402382F307FE83CF10561
:1015C00008F0AFC0311179C0FE2C251323C094134D
:1015D00021C0E1101FC08F7080618093D4020E94EF
:1015E000380AC6010E9446078091D402F80185831B
:1015F0008F2D61960FB6F894DEBF0FBECDBFDF9181
:10160000CF911F910F91FF90EF90DF90CF90BF90FF
:10161000AF900895AB2829F0842F85238F3F09F0E0
:1016200027C180E0F82FF170DF2E80FF3CC0809151
:101630009D0220919E0236E0821315C04D875E8781
:101640008D859E850E947109292F22952F70223049
:10165000F0F0243018F59F70F1F0F8019581907F3B
:10166000D1F4D12C1EC090E0389FF001399FF00DCD
:101670001124E156FD4F6181651306C0608164133A
:1016800003C06281E6120FC001968770D5CF9F70AC
:1016900011F0882331F3805E883018F3C8010E946E
:1016A0004607FD2CA5CFEE2009F4A2CF8091D402ED
:1016B00081608093D402F12C9BCF251306C0941334
:1016C00004C0F801EE2009F487C0C8010E94A707F2
:1016D000882319F1EE2009F18091D402803270F054
:1016E0002091CF023091D00238872F831986BB8694
:1016F000AA868C87CE0107960E94460786E0F801ED
:10170000AFECB2E001900D928A95E1F70E94460A93
:101710000E94380AFF24F3946BCFC8010E94460749
:10172000F9CF311113C07A2DB98AA88A6E2D898913
:101730000E94AE078FEC92E00E94460786E0F60119
:1017400011928A95E9F70E94380AB5CF25130FC088
:1017500094130DC0E1100BC0F8018583C8010E94ED
:10176000460786E0F60111928A95E9F741CFC80154
:101770000E94A707882389F2EE2079F28091D40293
:10178000803208F4BBCF2091CF023091D0023A834F
:1017900029831B82BD82AC828E83CE010196ACCFA1
:1017A000E83CF10508F03EC0FE2CEE2009F4B5CF70
:1017B00025132AC0941328C08091D40280FD1BC039
:1017C000982F907FC1F0F8018583903F31F0982FDA
:1017D000907F905F8F70892B8583C8010E94460798
:1017E00086E0F801AFECB2E001900D928A95E1F746
:1017F0000E94380AFDCE86E0F801AFECB2E001901D
:101800000D928A95E1F7F4CEC8010E94A7078111D5
:1018100075CF8091D40281608093D402C8010E9468
:101820004607E6CE7A2DB98AA88A6E2D89890E944C
:10183000AE0786E0F60111928A95E9F7D9CFEE203E
:1018400009F46BCFC8010E94A707F82E882309F47A
:1018500064CF86E0F801AFECB2E001900D928A957A
:10186000E1F78FEC92E00E94FF030E94460AC0CF8E
:1018700081E08E25D7CE1F93CF93DF93CDB7DEB710
:101880002C970FB6F894DEBF0FBECDBF4F8358879D
:1018900069877A878B879C87CE0107960E949C0A6E
:1018A000882369F08A859B85892B39F04F8158857B
:1018B000842F85238F3F09F071C016E05FC086E05A
:1018C000FE013796DE01119601900D928A95E1F79F
:1018D0008A859B85892B89F38F81988589238F3F02
:1018E00061F320919E0230E0C9010196877099272B
:1018F00040919D024817190671F40E9484071092C6
:101900009E0210929D0286E0EFECF2E0DF011D9254
:101910008A95E9F7D2CF96E0929FD001939FB00DC0
:101920001124A156BD4FFE01319601900D929A955A
:10193000E1F780939E020E94170ABFCF819FC001EA
:10194000112481569D4F0E949C0A8823E9F0E09162
:101950009D021E9FF0011124E156FD4F40815181EF
:1019600062817381848195810E94BD0780919D026F
:1019700090E001968770992780939D0280919D0247
:1019800090919E028913DACF2C960FB6F894DEBFA1
:101990000FBECDBFDF91CF911F91089569857A85E4
:1019A0008B859C850E94BD0788CF682F8091D301CD
:1019B0009091D4010C944928682F8091D301909183
:1019C000D4010C944B288091D3019091D4010C94B4
:1019D0004D288091D50285958595859508958091AE
:1019E000D502877008959091D502977081E009F42F
:1019F00080E0089590914C0392FB222720F928174C
:101A000051F080FB92F990934C0380914B0390919D
:101A10004C030C94FF0D089580914C0382FB8827A2
:101A200080F991E089270C94FA0C81E00C94FA0C6F
:101A300080E00C94FA0C8091E10208959091E1020B
:101A4000892B8093E102089580959091E10298237B
:101A50009093E10208951092E10208959091E002BE
:101A6000892B8093E002089580959091E00298235D
:101A70009093E00208951092E00208959091DF02A1
:101A8000892B8093DF02089580959091DF0298233F
:101A90009093DF0208951092DF0208958091D6029C
:101AA000089508950C94510D90914C0392FD08C037
:101AB0009091D602981721F08093D6020C94520D83
:101AC00008958091D602882329F01092D60280E0F2
:101AD0000C94520D0895E091D301F091D4018091BE
:101AE000E1028083E091D301F091D4018081909153
:101AF000E002892B8083E091D301F091D4018081B1
:101B00009091DF02892B80839091D602992381F0F6
:101B1000E091D301F091D4018081892B8083809161
:101B2000D3019091D4010E94012881110E94610D7E
:101B30008091D3019091D4010C94BC2708950C940A
:101B40009E0D90914C0392FD10C098E0899F9001EA
:101B50001124622B6093D5020E943F088091D50228
:101B60008595859585950C949F0D0C943F08109252
:101B7000D50280E00C949F0D9091D5028095892329
:101B80008093D502282F277039F4282F082E000CB7
:101B9000330B9217130621F490914C0392FF07C068
:101BA0008595859585950E9460080C94B70D0895DC
:101BB0006FEF7FEF90E080E00C94373190E080E0B1
:101BC0000E94033121E0893E9E4F09F020E0822FE0
:101BD000089582E090E00C94FB3083E090E00C9458
:101BE000FB30CF9384E090E00E94FB30C82F82E26C
:101BF00090E00E94FB30982F8C2FCF910895CF93C7
:101C0000C92F682F84E090E00E9419316C2F82E286
:101C100090E0CF910C941931AB01BC018FE090E0C2
:101C20000C942B31AB01BC0183E190E00C942B317F
:101C300060E070E0CB010C94120E60E070E0CB012C
:101C40000E940C0E0C94180E69EE7EEF90E080E07E
:101C50000E94373160E082E090E00E94193160E03C
:101C600083E090E00E9419311092990210929A023A
:101C700010929B0210929C0260E084E090E00E942F
:101C8000193160E082E290E00E94193160E085E065
:101C900090E00E94193160E086E090E00E941931E6
:101CA0006FEF87E090E00E94193140E050E0BA0108
:101CB00088E090E00E942B3160E08DE090E00E948F
:101CC000193140E050E0BA0188E190E00E942B31E8
:101CD00060E087E190E00E94193140E050E0BA01F5
:101CE0008CE190E00E942B3170E060E080E290E0B7
:101CF0000E94373140E050E0BA0188E190E00E9454
:101D00002B310C941D0E0C94240E682F8EE090E065
:101D10000C9419310E94E6286093EF027093F00250
:101D20008093F1029093F2026093EB027093EC02C5
:101D30008093ED029093EE02089585B7806885BF89
:101D400085B7806885BF0895089508950C94A40E02
:101D500008950C94A80E0E949D0E80E991E10E94C6
:101D600065290E94A50E0C94A60E81E008950C949E
:101D7000B50E089508950E94B90E0C94BA0E0E94F3
:101D8000D1280E9491120C94A90E8F929F92AF922B
:101D9000BF92CF92DF92EF92FF920F931F93CF9358
:101DA000DF93CDB7DEB72A970FB6F894DEBF0FBE2C
:101DB000CDBF0E94B31281110E948A0E53EE852E70
:101DC00052E0952E10E000E0E02E802F0E94D4110A
:101DD0005C01F401C190D1904F01C816D906B1F44D
:101DE0000F5F1F4F0430110579F78FEF89838A83C6
:101DF0001B820E94DA288160782F9D838C83498121
:101E00005A816B818D810E94C1033DC08091F30294
:101E100081FD0E94DD11C6018A259B25F12CCC2471
:101E2000C394D12C9C012C213D21232B09F44DC0BE
:101E30000E94B70E95012C213D21BB24B394232B86
:101E400009F4B12C882379F0FE82EF82B8860E94D3
:101E5000DA288160782F9A8789874E815F8168852B
:101E60008A850E94C103000F111FF801ED51FD4F3B
:101E700080819181C826D926D182C0824B2D6F2DB9
:101E80008E2D0E94D7200E9497220E94B4140E9497
:101E9000B0279091E2028917F9F00E94B027809351
:101EA000E2022A960FB6F894DEBF0FBECDBFDF91D7
:101EB000CF911F910F91FF90EF90DF90CF90BF9047
:101EC000AF909F908F900C94B903F394CC0CDD1CD1
:101ED000FCE0FF12A7CF84CF2A960FB6F894DEBF9E
:101EE0000FBECDBFDF91CF911F910F91FF90EF906B
:101EF000DF90CF90BF90AF909F908F90089590E02B
:101F000080E008950895972F70E02CE0929F600D77
:101F1000711D1124FB0190E3899FE00DF11D112437
:101F2000EE0FFF1FE455FF4F859194910895FC013A
:101F3000EE0FFF1FE451FD4F859194910895CF93CB
:101F4000DF930E94B610EC01811520E5920708F09E
:101F500042C0811530E4930708F0BDC0883E91056A
:101F600028F5803E910508F09DC0883A910588F4D7
:101F7000853A910508F08FC08130910509F492C02F
:101F8000009709F48FC0049708F08CC0D0E0C0E03F
:101F900089C08F3B910508F489C0805C9109C03CE1
:101FA000D105A0F30E94970FEC017CC081159042EF
:101FB00050F4C11581E0D80708F074C0CD3ED105BA
:101FC00028F3D0656FC0C11590E3D90708F079C038
:101FD000CE019F70E7CF811525E5920758F5811551
:101FE00034E5930708F0A6C0811542E5940750F444
:101FF000C11581E5D80708F471C0DC2FCC27C16F6B
:10200000D06A50C0982F969596959E0123703327DD
:10201000C115D34508F07FC0C1E0D0E002C0CC0FAD
:10202000DD1F2A95E2F720E2929FC0011124C82B00
:10203000D92B6FC0C11589E5D807A8F4C11598E55B
:10204000D90708F07CC0C11526E5D20708F09ECF5D
:102050008C2F0E944D11C82FD0E0DC2FCC27CC272D
:10206000DF71D0621FC0C1153AE5D30708F46CC018
:10207000CE0190568115904208F088CF8D2F8F7138
:102080000E944D1190E0982F882788279F719C010E
:102090002C2BE901E6CFC55AD0E0C05BDD4FC881EB
:1020A000D0E0D064CE01DF91CF910895C85AD0E03E
:1020B000CC0FDD1FCE5DDD4F0990D881C02DD464DB
:1020C000F1CFCE019927D3FF03C0EC01D86CEACF42
:1020D000EC01D06CE7CFDF70D06AE4CFCE01E4E052
:1020E00096958795EA95E1F783702C2F269526958E
:1020F000237090E2299F90011124382B8C2F83703C
:10210000C1E0D0E002C0CC0FDD1F8A95E2F7C22B00
:10211000D32BDC68C7CFC1E0D0E002C0CC0FDD1FFD
:102120002A95E2F730E2939FC0011124C82BD92BE6
:10213000DA68B8CFD82FCC27C46FD06AB3CFDC2FE2
:10214000CC27C06FD06AAECF8C2F8F700E944D11FC
:1021500034E0D695C7953A95E1F7CF709C2FEC0106
:10216000D069A0CF0E94830F0C949F0F82389105F5
:10217000B1F1B0F48133910509F475C048F48932A6
:10218000910509F469C08A32910509F473C0089574
:102190008533910509F459C08933910501F10895FA
:1021A000833E9105A9F138F4803E9105F9F0823E15
:1021B000910549F10895863E9105A9F1873E910563
:1021C000C9F1843E910519F520914C0321FF1FC0F0
:1021D00080914B0384FD14C087EE90E00895209118
:1021E0004B032370A1F080EE90E0089520914B0303
:1021F00020FD47C030914C0330FF09C024FF44C08C
:1022000090E080E004C020914B0322FDF7CF0895B9
:1022100020914B0322FD3BC030914C0330FDE3CFB6
:1022200024FFF5CFEDCF20914B0323FFF0CF24FD0A
:10223000E7CFD2CF20914B0323FD2CC030914C032C
:1022400031FFEECF84EE90E0089520914B0325FFFF
:10225000DECF89E290E0089520914B0325FFD7CF90
:1022600085E390E0089520914B0326FFD0CF8AE2CA
:1022700090E0089520914B0326FFC9CF81E390E0C1
:10228000089589E390E0089583EE90E0089582EE4A
:1022900090E0089586EE90E0089590914B0392FFB0
:1022A00006C0282F28712830F9F4877F846093FFB7
:1022B00006C0282F28712831F1F4877E846120918F
:1022C0004C0320FF06C0382F38713830D9F4877F8F
:1022D000816021FF06C0282F28712831D1F4877E24
:1022E000816194FD877E0895282F24712430F9F6AA
:1022F0008B7F8860DCCF282F2471243101F78B7EFF
:102300008861DDCF382F3171313019F78E7F8860C9
:10231000E0CF282F2171213121F78E7E8861E1CF16
:1023200080E008950C94D80D0E94B3128FE39CE9CD
:102330000197F1F700C000000E94B31280E00E94F4
:10234000D41180FF04C00E9492110C944129089579
:102350000C9494110E94DE0D811102C00E94830E24
:102360000E94E90D8093F3020E94F10D90934C03BB
:1023700080934B030E94A8110E94ED0D682F70E01E
:1023800090E080E00E94DD076091950270919602D6
:1023900080919702909198020C94170808950C94DC
:1023A000CE1108950C94D111E82FF0E0EE0FFF1F2D
:1023B000EB5AFC4F808191810895089580EA8A95B7
:1023C000F1F7089500C008950C94DE11F894E82FF9
:1023D000E295EF70F0E031A1282F2F7081E090E0BE
:1023E00001C0880F2A95EAF7982F9095932391A31F
:1023F00092A1892B82A378940895CF93DF9383E3EE
:102400000E94E61182E30E94E61186EC0E94E6112A
:1024100085E30E94E611C3E5D2E089918F3F11F078
:102420000E94E61182E0CF35D807B9F7DF91CF914E
:102430000895AF92BF92CF92DF92EF92FF920F93E7
:102440001F93CF93DF938C01B62EC62FD0E0CE0121
:10245000815A9D4F7C01FC0120812F3F09F453C01C
:10246000F894E22FE295EF70F0E031A12F7081E057
:1024700090E001C0880F2A95EAF7932F982B91A33B
:1024800092A18095892382A378940E94E211E3E5CA
:10249000F2E030E020E0D12CC12C41E050E081910D
:1024A0008F3FE1F1A82FA295AF70B0E090966C91AC
:1024B00070E08F7002C0759567958A95E2F760FDB0
:1024C0002DC0CA01022E02C0880F991F0A94E2F79C
:1024D000C82AD92A2F5F3F4F2C30310501F7F70169
:1024E00080818F3F11F00E94E61161E0C114D10498
:1024F00009F460E08B2D0E94E411CC0FDD1FC00FAA
:10250000D11FD982C882DF91CF911F910F91FF9087
:10251000EF90DF90CF90BF90AF90089590E080E073
:10252000D7CF0E94FD11ADE4B3E011961C921E922C
:10253000E5E5F3E01182108213961C921E92129729
:102540001382128215961C921E9214971582148281
:1025500017961C921E9216971782168284E00E948C
:10256000FE120C943F03FF920F931F93CF93DF93C0
:10257000CDB7DEB728970FB6F894DEBF0FBECDBF3C
:102580008E010F5F1F4F88E0F80111928A95E9F7DD
:10259000F12C6F2DC8010E941912F394F4E0FF1280
:1025A000F8CF48E050E0B8018DE493E00E94D530C8
:1025B000FF24F394009709F4F12C892B41F088E073
:1025C000F801ADE4B3E001900D928A95E1F72F2D6B
:1025D00044E065E573E08DE493E00E94FF120E9401
:1025E00047038F2D28960FB6F894DEBF0FBECDBFE0
:1025F000DF91CF911F910F91FF9008950895FF9261
:102600000F931F93CF93DF93F82E092F162FD72FF9
:10261000C42F222349F081E08093F6020E94DA2839
:102620009093F5028093F4028091F6028823A1F042
:102630008091F4029091F5020E94F228059760F0D3
:10264000EF2DF02FA12FBD2F90E080E0D0E08C1770
:102650009D0744F01092F602DF91CF911F910F91E8
:10266000FF900895219131912D933D930196EFCFE5
:102670000E9454280E94C32A0E94DC2A0E94EE2A4B
:102680000E94BB0EFBCF8091FD0280FF12C06091C3
:10269000DA0185E0689FB0011124759567957595FD
:1026A000679560387105A8F561157105A1F1862F50
:1026B000089581FF09C06091DA0185E0689FB0014B
:1026C000112475956795EDCF6091DA0182FD0AC0FE
:1026D0008091FC028823D1F09091D9016091DA01B8
:1026E000891728F085E0689FB0011124DACF869F12
:1026F000B001112485E0869F9001879F300D112441
:10270000692F70E0C9010E941E30CBCF65E070E0F8
:10271000CECF8FE7089581E008958091FD0280FF7C
:102720000CC06091D60170E07595679575956795B9
:102730006115710549F1862F089581FF06C06091EA
:10274000D60170E075956795F3CF6091D60182FD53
:102750000BC09091FB029923A1F06091D50180916B
:10276000D601961738F0682F70E06038710500F3D5
:102770008FE70895899FC001112470E00E941E30E8
:10278000F4CF61E070E0D7CF81E008958D3E31F461
:102790000E94431381958093010308958E3E19F49E
:1027A0000E944313F8CF8F3E31F40E94431381956A
:1027B000809300030895803F19F40E944313F8CFDB
:1027C000893F29F40E948D138093020308958A3F64
:1027D00021F40E948D138195F7CF8B3F31F40E9435
:1027E0008D1381958093030308958C3F19F40E9403
:1027F0008D13F8CF9FE0980F983070F4815F990B9C
:1028000021E030E001C0220F8A95EAF78091FF02B3
:10281000822B8093FF0208958D3F31F48091FD0259
:1028200081608093FD0208958E3F21F48091FD0226
:102830008260F7CF8F3FB9F78091FD028460F1CFBE
:10284000409100038D3E59F48091010387FF0DC034
:102850001092010341110BC01092FC0208C08E3E81
:1028600081F48091010318169CF3442381F0809138
:10287000020390910303892B09F05AC01092FB02C6
:1028800008958F3E49F447FFF0CF109200038091E6
:1028900001038111ECCFE0CF803F19F41416ACF3A3
:1028A000E4CF90910203893F29F41916F4F61092AF
:1028B0000203DBCF8A3F19F497FFD7CFF8CF90916F
:1028C00003038B3F29F497FFD0CF10920303CDCFA2
:1028D0008C3F19F41916CCF3C8CF9FE0980F9830AD
:1028E00090F4815F990B21E030E0B90102C0660FDE
:1028F000771F8A95E2F7CB0180959091FF0289239B
:102900008093FF02B2CF8D3F31F48091FD028E7F24
:102910008093FD02AACF8E3F21F48091FD028D7F2E
:10292000F7CF8F3F09F0A1CF8091FD028B7FF0CFD1
:1029300008950E94DA289C01909100038091010380
:10294000982B21F03093FA022093F9029091020320
:1029500080910303982B21F03093F8022093F70223
:102960008EEF92E00C94C727EF92FF920F931F9384
:10297000CF93DF9300D000D000D0CDB7DEB786E094
:10298000EEEFF2E0DE01119601900D928A95E1F7EB
:10299000E0900003F0900103009102031091030303
:1029A000109200031092010310920203109203038D
:1029B0008E2D8F2991F08091F9029091FA020E9458
:1029C000F228AC019091FC02992309F43FC0809158
:1029D000DB018417150608F447C0802F812B91F086
:1029E0008091F7029091F8020E94F228AC01909138
:1029F000FB02992309F477C08091D701841715064B
:102A000008F47FC08091000390910103892B90917D
:102A10000203892B90910303892B11F00E949914D2
:102A200086E0FE013196AEEFB2E001900D928A95FC
:102A3000E1F726960FB6F894DEBF0FBECDBFDF914B
:102A4000CF911F910F91FF90EF9008952091DC019D
:102A50008AE0289F900111242417350708F0BDCF84
:102A60009F5F9093FC0202C09F3FD1F7EE2059F088
:102A70000E9443139FEF1E140CF491E0899F802D58
:102A8000112480930003FF2059F00E9443139FEF0D
:102A90001F140CF491E0899F802D11248093010371
:102AA00030910003332309F498CF209101032223AE
:102AB00009F493CF45EB3403C0011124992359F055
:102AC0009093000345EB240390011124332339F044
:102AD0003093010382CF81E080930003F3CF81E044
:102AE000809301037ACF2091D8018AE0289F90013A
:102AF00011242417350708F085CF9F5F9093FB02C0
:102B000002C09F3FD1F7002359F00E948D139FEF21
:102B100010160CF491E0899F802D112480930203FC
:102B2000112359F00E948D139FEF11160CF491E0C0
:102B3000899F802D11248093030330910203332356
:102B400009F460CF20910303222309F45BCF45EB06
:102B50003403C0011124992359F09093020345EBEB
:102B6000240390011124332339F0309303034ACF17
:102B700081E080930203F3CF81E08093030342CF8F
:102B800086E0EEEFF2E0DF011D928A95E9F7109200
:102B9000FC021092FB021092FD020895EF92FF9248
:102BA0000F931F93CF93DF93EB01E82FD11110C048
:102BB000442321F0F0E0E451FD4FE4916E2F7E2F8D
:102BC0008E2FDF91CF911F910F91FF90EF9008957D
:102BD0000D2F10E0282F30E0442329F024513D4FE1
:102BE000F901249130E0F6E0CF9FC0011124EFEF0E
:102BF000F0E0BF010E940A30AB018C2F90E0880FFB
:102C0000991FA5E5A49FB001A59F700D1124861BF7
:102C1000970B982F990F980FBF01601B710B629F44
:102C2000D001639FB00D729FB00D11248B2F9D9F1B
:102C3000B0011124672F7727EF01C61BD70BBE0108
:102C4000629FE001639FD00D729FD00D11247F0120
:102C5000E91AF108E09EB001E19E700DF09E700D42
:102C60001124672F7727E61BF70BE29F8001E39F74
:102C7000100DF29F100D1124E12F722F42305105DB
:102C800099F048F44115510569F04130510581F042
:102C9000EB2F8D2F07C04430510569F080F046308E
:102CA0005105B1F76E2F8DCFE22F7B2F812FFACFF9
:102CB000E22F7D2FF7CFEB2F822F712FF3CF7B2FBA
:102CC000822FED2FEFCF41E00C94CE1530E020E0C5
:102CD000869F212D969F200D311D1124C901089535
:102CE000AC018230910508F408959FEF413E8EE1DA
:102CF000580740F49A0195E0369527959A95E1F7A3
:102D000098E0920F61E0E62FE90FFF27FF1F9F0178
:102D100035952795822F229FF001239FF00DF00D0E
:102D200011244E175F0738F49FEF920F961758F74C
:102D30008FEF860F08952F3FE9F361E0620FF6CF22
:102D4000E82F86FDE0952E2F2F7086FD2F5FE695EC
:102D5000E695E695E670F0E0ED59FD4F9181929F82
:102D6000902D212D112492959F702295207F922BDA
:102D70002081920F87FD919580E8890F0895E42FB7
:102D8000F0E0EE0FFF1FEC5CFE4F408134EE439FFE
:102D9000412D1124E72FF0E050E0445E5F4FDA014F
:102DA000A21BB1099D01B7FF03C0319521953109DF
:102DB00093E0220F331F9A95E1F7AF01421B530BAB
:102DC0009A0157FD20E0279F212D1124722F08958D
:102DD000E42FF0E0EE0FFF1FEC5CFE4F408134EE7D
:102DE000439F412D1124E82FF0E050E0445E5F4FF7
:102DF000DA01A21BB1099D01B7FF03C031952195EE
:102E0000310993E0220F331F9A95E1F7AF01421B7E
:102E1000530B9A0157FD20E0582F259F212D112497
:102E2000822F0895622F0895E42FF0E0EE0FFF1F28
:102E3000EC5CFE4F6081621B0895E42FF0E0EE0F22
:102E4000FF1FEC5FFE4F61A9621B0895322F50E017
:102E5000FA01EE0FFF1FEC5FFE4F91A9905297FD14
:102E60009195440F551FFA01EC5CFE4F2081231B06
:102E7000330B290F311D97FD3A95620F0895EF929C
:102E80000F93972F23E0029FB0011124759567954A
:102E90006E0D792F0F91EF9008950F93CF93DF93DD
:102EA000D72FC82F47FD419588E390E0841B9109F7
:102EB00047FD9395889FB001899F700D700D112477
:102EC000229FC001239F900D900D1124860F971F04
:102ED0000E947016982F990F890F682F600F7D2F11
:102EE0008C2FDF91CF910F9108950F931F93522F45
:102EF00010E0F801EE0FFF1FEC5FFE4FA1A9A052FA
:102F0000BB0B9D015203F001539FF00D1124000FE4
:102F1000111FD801AC5CBE4F0C910057110B400340
:102F20009001419F300D11242E0F3F1F37FF02C02B
:102F300021583F4F220F232F221F330B620F1F9167
:102F40000F9108950F931F93522F10E0F801EE0F89
:102F5000FF1FEC5FFE4FA1A9A052BB0B9D015203C6
:102F6000F001539FF00D1124000F111FD801AC5C2C
:102F7000BE4F0C910057110B40039001419F300D43
:102F800011242E0F3F1F37FF02C0215C3F4F96E0F8
:102F9000359527959A95E1F7620F1F910F91089546
:102FA0000F931F9310E0F801EE0FFF1FEC5CFE4F34
:102FB0009081905797FD9195000F111FF801EC5FDC
:102FC000FE4F01A90052110B2003F001219FF00DCB
:102FD000112408E310E0091B110997FD1395400324
:102FE0009001419F300D1124E20FF31F9F01220F2A
:102FF000331F2E0F3F1F37FF02C021583F4F220FB4
:10300000232F221F330B620F1F910F9108950F93EF
:103010001F93CF93DF938B01D82FC42F822F0E9451
:10302000A016EC2FF0E0EE0FFF1FEC5CFE4F90813E
:103030009058890F87FD8195880F682F2CE0629F3B
:10304000612D1124600F712F8D2FDF91CF911F9172
:103050000F910895E42FF0E0EE0FFF1FEC5CFE4FA0
:103060009081921B97FD9195292F38E1239F212D67
:103070001124620F08954095282F429F412D11245D
:10308000842F089522E8241B08F420E0620F08959D
:10309000EF92FF920F93970195E0099F200D311D4C
:1030A00011242F3F310519F010F02FEF30E020955B
:1030B000382F320F08F43FEF832F0F91FF90EF90DE
:1030C0000895EF92FF920F931F930E0D1F2D111D68
:1030D000F90137FF03C0F195E195F10924E0EE0F06
:1030E000FF1F2A95E1F7EF3FF10519F014F0EFEF1C
:1030F000F0E09A0157FF03C031952195310994E022
:10310000220F331F9A95E1F72E173F070CF4F901B0
:10311000E00FF11FEF3FF10519F010F0EFEFF0E0D5
:10312000E095282F3E2F230F08F42FEF822F1F91B9
:103130000F91FF90EF900895EF92FF920F93972FCA
:10314000093438F4B701601B71096F3F710519F03C
:1031500010F06FEF70E0485F5F4F4131510540F074
:10316000A901485F5F4F4131510510F06FEF70E0EA
:103170006095482F460F08F44FEF842F37FF02C0A9
:103180002D5F3F4F359527953595279560915E03C7
:10319000620F792F0F91FF90EF900895EF92FF92B9
:1031A0000F939701201B31092F3F310519F010F0C3
:1031B0002FEF30E0322F3095482F430F08F44FEFB8
:1031C000842F620F0F91FF90EF900895EF92FF927E
:1031D0000F939701201B31092F3F310519F010F093
:1031E0002FEF30E02095382F320F08F43FEF832F78
:1031F0000F91FF90EF900895FC019B01009729F437
:1032000080E077FF2BC080E80895AC0197FF04C0F1
:1032100044275527481B590BB901640F751F37FD0B
:1032200010C0241B350BC901A5E0880F991FAA9572
:10323000E1F70E941E3080E2861BF7FF0FC08195E8
:103240000895CB0165E0880F991F6A95E1F7BA01EF
:10325000621B730B0E941E3080E6EECF08950F9321
:103260001F93CF93DF93D62F172FC82FC901272F76
:10327000201B022FBA010E94FC18982F990F990F5A
:10328000782F791B700F719F712D11246D2F8C2F4A
:10329000DF91CF911F910F9108950F931F93CF93BB
:1032A000DF93D62FC72F182FC901212F201B022FE4
:1032B000BA010E94FC18982F990F990F891B800F53
:1032C000282F219F212D1124822F6D2F7C2FDF91FC
:1032D000CF911F910F910895EF920F931F93CF936A
:1032E000DF93D62F172FC82FC9010E19070FBA0168
:1032F0000E94FC18702F781B719F712D11246D2F67
:103300008C2FDF91CF911F910F91EF900895EF9245
:103310000F931F93CF93DF93D62FC72F182FC90179
:103320000E19010FBA010E94FC18081B202F219FC3
:10333000212D1124822F6D2F7C2FDF91CF911F9192
:103340000F91EF9008950F93CF93DF93D72FC82F4E
:10335000C901BA010E94FC18682F600F7D2F8C2FC5
:10336000DF91CF910F910895EF920F93CF93DF9359
:10337000D72FC82FC9010E19BA010E94FC18602F5F
:10338000681B7D2F8C2FDF91CF910F91EF900895C7
:103390000C94631646E050E06CE170E08DE593E03C
:1033A0000C94EB3046E050E06CE170E08DE593E08A
:1033B0000C940931EDE5F3E085E380838091EE0123
:1033C0009091EF01A091F00181839283A3838FE715
:1033D00084838FEF85830C94D21980E008950F9336
:1033E0001F93CF93DF93C82FD62F8A010E94ED1928
:1033F0009CE0C99FB00111246C5F7E4F6D0F711D61
:10340000FB0190819F3F29F0F801E80FF11D9083A7
:103410008F5FDF91CF911F910F910895E09171021D
:10342000F09172020994E0916D02F0916E0209949C
:103430003F924F925F926F927F928F929F92AF9244
:10344000BF92CF92DF92EF92FF920F931F93CF9391
:10345000DF933C012B01FC01C0818BE0C89FC02D94
:1034600011241BE01C0FF12E163310F035E3F32E60
:1034700060916103669580916303909164030E945B
:103480006616382ED0E0CE01880F991F9C012C5F64
:103490003E4F6901CF15B0F081E0153308F080E0B0
:1034A000DF91CF911F910F91FF90EF90DF90CF9020
:1034B000BF90AF909F908F907F906F905F904F9054
:1034C0003F900895FE01E256FE4F8081F301918105
:1034D000892379F1F60180A9282F2057330B590150
:1034E00081A9E82FE052FF0B4F01AA9C9001AB9CF1
:1034F000300D300D1124EE9FC001EF9F900D900D07
:103500001124820F931F0E947016082F60915E0392
:1035100070915F0380916003E32C9401A501F20197
:1035200009950E94C819462F282F672FCE010E94A7
:10353000131AF2E0CF0ED11C2196ACCF6CE679E1E4
:103540000C94181A67E879E10C94181A6FE377E184
:103550000C94181A64EB79E10C94181A8F929F92CC
:10356000AF92BF92CF92DF92EF92FF920F931F9391
:10357000CF93DF935C016B01FC01C0818BE0C89F9E
:10358000C02D11241BE01C0F912E163310F035E3D3
:10359000932E60916103669580916303909164031B
:1035A0000E946616882ED0E0CE01880F991F9C01DC
:1035B0002C5F3E4F7901C91588F081E0153308F082
:1035C00080E0DF91CF911F910F91FF90EF90DF90FE
:1035D000CF90BF90AF909F908F900895FE01E256DC
:1035E000FE4F8081F50191818923C1F0F70121A966
:1035F0002052330B40A94057550B60915E037091E8
:103600005F0380916003082DF60109950E94C81997
:10361000462F282F672FCE010E94131AF2E0EF0EDB
:10362000F11C2196C8CF6FE279E10C94AE1A6DE4DB
:1036300079E10C94AE1A6DE477E10C94AE1A63EA6A
:1036400079E10C94AE1ABF92CF92DF92EF92FF9283
:103650000F931F93CF93DF937C018B01FC01C081FB
:103660008BE0C89FC02D11249BE0D92EDC0ECD2C01
:10367000F5E3FD1510F485E3C82E609161036695AE
:10368000669521E0620F08F46FEF809163039091DB
:1036900064030E946616B82ED0E0CC1578F081E065
:1036A00094E39D1508F480E0DF91CF911F910F9175
:1036B000FF90EF90DF90CF90BF900895FE01E2560B
:1036C000FE4F8081F7019181892391F060915E0323
:1036D00070915F03809160032B2D4C2FF8010995A9
:1036E0000E94C819462F282F672FCE010E94131A57
:1036F0002196D3CF6FEB76E10C94231B68EE76E135
:103700000C94231B62E177E10C94231B64E177E1C5
:103710000C94231B6DE177E10C94231B66E277E1A7
:103720000C94231B67E078E10C94231B6AE278E198
:103730000C94231B7F928F929F92AF92BF92CF9255
:10374000DF92EF92FF920F931F93CF93DF935C0171
:103750006B01FC01C0818BE0C89FC02D11241BE0D0
:103760001C0F912E163310F035E3932E60916103F8
:103770006695669580916303909164030E94661636
:10378000F82E80E48F0D0E94A01690E8892E880EF6
:103790008F2D0E94A01620E8722E780ED0E0C91559
:1037A00090F081E0153308F080E0DF91CF911F9118
:1037B0000F91FF90EF90DF90CF90BF90AF909F90D0
:1037C0008F907F900895FE01E256FE4F8081F501B3
:1037D00091818923A1F060915E0370915F038091D4
:1037E0006003EF2C0C2F272D482DF60109950E9420
:1037F000C819462F282F672FCE010E94131A219631
:10380000CECF65E777E10C949A1B62EA77E10C94DE
:103810009A1B60ED77E10C949A1BAF92BF92CF9206
:10382000DF92EF92FF920F931F93CF93DF938C0160
:103830007B01FC01C0818BE0C89FC02D11242BE0CF
:10384000B22EBC0EAB2CF5E3FB1510F495E3A92EBC
:103850002091610331E0230F08F42FEF30E050E0B6
:1038600040E06FEF7FEF80E090E00E94323069012E
:10387000D0E02C2FCA1580F081E0F4E3FB1508F4AA
:1038800080E0DF91CF911F910F91FF90EF90DF903B
:10389000CF90BF90AF900895FE01E256FE4F808119
:1038A000F8019181892311F1409167034150042E61
:1038B000000C550B47FF1CC0C6016091610321E05D
:1038C000620F08F46FEF0E946616AC0160915E0310
:1038D00070915F0380916003F70109950E94C819F8
:1038E000462F282F672FCE010E94131A2196C1CF91
:1038F000FA01E959FC4F818982130AC0FA01EE0FDF
:10390000FF1FE959FC4F818D928D8C159D05A8F202
:1039100041505109CFCF6BE378E10C940D1C62E468
:1039200078E10C940D1C2F923F924F925F926F9210
:103930007F928F929F92AF92BF92CF92DF92EF923F
:10394000FF920F931F93CF93DF93CDB7DEB72B97E3
:103950000FB6F894DEBF0FBECDBF8C832B015F8303
:103960004E83FB01F0818BE0F89F802D1124898329
:10397000855F8A838B83863310F025E32B83309118
:1039800067033D839981892F90E09B878A87880F01
:10399000991FFC01EC5FFE4F6F01FC818F2F90E0BF
:1039A0009C012F5F3F4F39872887EB81FA85FE17EF
:1039B000F0F081E02A81253308F080E02B960FB6E5
:1039C000F894DEBF0FBECDBFDF91CF911F910F9155
:1039D000FF90EF90DF90CF90BF90AF909F908F902F
:1039E0007F906F905F904F903F902F900895EA8561
:1039F000FB85E256FE4F8081F2019181892301F11E
:103A000020905E0330905F032885398529593C4F0B
:103A100039013C81398310E029813D812317C8F0A9
:103A200020916003129F112D1124B101812F0E945A
:103A3000C819462F282F672F8A859B850E94131A45
:103A40008A859B8501969B878A8792E0C90ED11C47
:103A5000ACCFF30181913F01F601A0A8A81ABB08E1
:103A600081A8F3018781881A9908AA9C9001AB9CD0
:103A7000300D300D1124889CC001899C900D900D53
:103A80001124820F931F0E947016082F609161030A
:103A900021E0620F08F46FEFF301EE0FFF1FE7560E
:103AA000F340858996890E9466167C019401A501E0
:103AB000B101812FEE81FF8109951B01F981FF5F23
:103AC000F983182FA9CF2091670331E0231B08F455
:103AD00020E048E458E1BC01822F0C94931C48E498
:103AE00058E1BC0180E00C94931C2091670331E005
:103AF000231B08F420E041E658E1BC01822F0C941E
:103B0000931C41E658E1BC0180E00C94931C209189
:103B1000670331E0231B08F420E04CE958E1BC01C5
:103B2000822F0C94931C4CE958E1BC0180E00C946A
:103B3000931C2091670331E0231B08F420E04EEC36
:103B400058E1BC01822F0C94931C4EEC58E1BC014F
:103B500080E00C94931C2091670331E0231B08F450
:103B600020E046EE58E1BC01822F0C94931C46EEF7
:103B700058E1BC0180E00C94931CBF92CF92DF927D
:103B8000EF92FF920F931F93CF93DF937C01FC0181
:103B9000C0818BE0C89FC02D11241BE01C0F012F9A
:103BA000163308F005E360915E0370915F03809126
:103BB00060030E94C819D62EC72EB82ED0E0C017B9
:103BC00070F081E0153308F080E0DF91CF911F9114
:103BD0000F91FF90EF90DF90CF90BF900895FE017E
:103BE000E256FE4F8081F7019181892331F02B2D20
:103BF0004D2D6C2DCE010E94131A2196E0CF8F928D
:103C00009F92AF92BF92CF92DF92EF92FF920F936B
:103C10001F93CF93DF937C01FC01C0818BE0C89F91
:103C2000C02D11241BE01C0F012F163308F005E3F3
:103C3000C0905F03D0906003D0915E036D2F7C2D08
:103C40008D2D0E94C819B62EA72E982E6091610363
:103C50006D0F7C2D8D2D0E94C819D62EC72E882E53
:103C6000D0E0C01788F081E0153308F080E0DF91E4
:103C7000CF911F910F91FF90EF90DF90CF90BF9069
:103C8000AF909F908F900895FE01E256FE4F908175
:103C9000F7018181892359F0282D4D2D6C2D90FD40
:103CA00003C0292D4B2D6A2DCE010E94131A219697
:103CB000D8CFBF92CF92DF92EF92FF920F931F93D4
:103CC000CF93DF937C01FC01C0818BE0C89FC02DA6
:103CD00011241BE01C0FD12E163310F095E3D92EC2
:103CE000C0905F03B09060032091610300E4029FE5
:103CF000012D1124D0E0CD1570F081E0153308F0CE
:103D000080E0DF91CF911F910F91FF90EF90DF90B6
:103D1000CF90BF900895FE01E256FE4F8081F701DB
:103D200091818923B9F0FE01EE0FFF1FEC5FFE4F7A
:103D300081A982958F7060915E03809F600D112430
:103D40007C2D8B2D0E94C819462F282F672FCE015E
:103D50000E94131A2196CFCFBF92CF92DF92EF929B
:103D6000FF920F931F93CF93DF938C01FC01C081CF
:103D70008BE0C89FC02D11245BE0F52EFC0EDF2CDC
:103D8000F5E3FF1510F445E3D42EC0905F03B09027
:103D900060032091610330E4E32E3E2D329F312DEC
:103DA0001124E32ED0E0CD1578F081E034E33F1507
:103DB00008F480E0DF91CF911F910F91FF90EF9079
:103DC000DF90CF90BF900895FE01E256FE4F8081B4
:103DD000F80191818923D9F0FE01EE0FFF1FEC5FFE
:103DE000FE4F60A9E69EB001112495E07595679598
:103DF0009A95E1F780915E03680F7C2D8B2D0E94D0
:103E0000C819462F282F672FCE010E94131A21961A
:103E1000CACFBF92CF92DF92EF92FF920F931F9380
:103E2000CF93DF938C01FC01C0818BE0C89FC02D34
:103E300011249BE0F92EFC0EEF2CF5E3FF1510F496
:103E400085E3E82ED0905E03D0915F03C0906003BD
:103E50006091610366956695669580916303909184
:103E600064030E9466160E94A016805887FD819503
:103E7000880F282F3C2D239F212D1124822F6D2D5B
:103E80007D2F0E94C819D62EC72EB82ED0E0CE1591
:103E900078F081E024E32F1508F480E0DF91CF91E2
:103EA0001F910F91FF90EF90DF90CF90BF900895FA
:103EB000FE01E256FE4F8081F8019181892331F0A5
:103EC0002B2D4D2D6C2DCE010E94131A2196DFCF84
:103ED000DF92EF92FF920F931F93CF93DF938C01AA
:103EE000FC01E256FE4F8081682381F1D0905F0390
:103EF000D0916003C0915E03EC2EF12C0E94C5307E
:103F0000282FC7018C549F4F68E671E00E941E3035
:103F10008E199F0997FD0396959587959595879599
:103F200023706C2F289F600D11247D2D8D2F0E94F2
:103F3000C819462F282F672FC801DF91CF911F91F5
:103F40000F91FF90EF90DF900C94131ADF91CF91B7
:103F50001F910F91FF90EF90DF900895DF92EF9205
:103F6000FF920F931F93CF93DF938C01FC01C281CB
:103F7000C11125C06091610320E1620F08F46FEF69
:103F800080916303909164030E9466166AE070E07A
:103F90000E940A30892B51F40E94C53065E370E01D
:103FA0000E941E30F80161810E94681F8C2FDF91F2
:103FB000CF911F910F91FF90EF90DF900895C081F6
:103FC0008BE0C89FC02D11248BE0D82EDC0E8D2DE8
:103FD000F5E3FD1508F485E3D0E0E82EF12CCE15CD
:103FE000DF0534F0C1E0F4E3FD1500F7C0E0DECFFB
:103FF000F8016181CE010E94681F2196F0CF1F93C6
:10400000CF93DF93EC01FC01E256FE4F80816823E1
:10401000C9F00E94C530182F0E94C5308F77782FC5
:1040200020E8720F08F47FEF612F809160030E94F7
:10403000C819462F282F672FCE01DF91CF911F91EE
:104040000C94131ADF91CF911F910895DF92EF9294
:10405000FF920F931F93CF93DF938C01FC01C281DA
:10406000C11125C06091610320E1620F08F46FEF78
:1040700080916303909164030E94661665E070E08E
:104080000E940A30892B51F40E94C53065E370E02C
:104090000E941E30F80161810E94FF1F8C2FDF916A
:1040A000CF911F910F91FF90EF90DF900895C08105
:1040B0008BE0C89FC02D11248BE0D82EDC0E8D2DF7
:1040C000F5E3FD1508F485E3D0E0E82EF12CCE15DC
:1040D000DF0534F0C1E0F4E3FD1500F7C0E0DECF0A
:1040E000F8016181CE010E94FF1F2196F0CFBF929F
:1040F000CF92DF92EF92FF920F931F93CF93DF93B4
:104100007C01FC01C0818BE0C89FC02D11241BE005
:104110001C0F012F163308F005E3C0905F03D09009
:104120006003D0915E036091610366956695669524
:1041300080916303909164030E9466160E94A0160A
:10414000805887FD8195880F682F2CE0629F612D34
:1041500011246D0F7C2D8D2D0E946316D62EC72E37
:10416000B82ED0E0C01770F081E0153308F080E081
:10417000DF91CF911F910F91FF90EF90DF90CF9043
:10418000BF900895FE01E256FE4F8081F7019181B4
:10419000892331F02B2D4D2D6C2DCE010E94131A49
:1041A0002196E0CFE0916F02F09170020994CF92D6
:1041B000DF92FF920F931F93CF93DF93CDB7DEB7BC
:1041C00028970FB6F894DEBF0FBECDBF182F062F6D
:1041D000F42E0E94B50E882309F44CC0FF2009F488
:1041E00057C0AE014F5F5F4F602F812F0E94EF19C4
:1041F000F82E0F2D10E080910403800F912F911D58
:1042000009976CF188E090E06C01C01AD10AB801FE
:104210006B5F7C4FA60185E093E00E94E230B8011D
:10422000635F7C4FA6018DE093E00E94E230A6011F
:10423000440F551FB801660F771F635E7C4F8DE1F9
:1042400093E00E94E230B8016B5E7C4FA60185E1ED
:1042500093E00E94E23088E08F198093040310916C
:104260000403DE01119640E0842F810FF41212C086
:104270008093040328960FB6F894DEBF0FBECDBF1F
:10428000DF91CF911F910F91FF90DF90CF90089514
:10429000F12CAFCF5D91252F30E090E0BC016C5F39
:1042A0007C4FF901EE0FFF1FEC5CFE4F0081FB011C
:1042B0000183220F331FF901EC5FFE4F21A9FB019F
:1042C0002187518B880F991FFC01EC5FFC4F128EE8
:1042D000118E4F5FC9CFCF93C82F8091E1018C130E
:1042E00023C090915D0393702091E20130E081E062
:1042F0009217130609F480E081708093E0018091A9
:1043000062039091DF01981739F08093DF0140E05C
:1043100060E080E00E94D220C83288F4EC2FF0E008
:10432000E158FE4C0C94513081E0E6CF8091E001E1
:10433000882359F040E060E080E00E94D22080E0D5
:1043400004C08EED91E00E94BD1D9091DE019F5F43
:104350009093DE0181110CC082E08093DD01809199
:10436000E001811105C0C11103C083E08093DD012C
:10437000CF9108958EED91E00E94FF1DE6CF8EED66
:1043800091E00E94591EE1CF8EED91E00E94AC1E9B
:10439000DCCF8EED91E00E94091FD7CF8EED91E02A
:1043A0000E947A1BD2CF8EED91E00E947E1BCDCF72
:1043B0008EED91E00E94131BC8CF8EED91E00E941C
:1043C000171BC3CF8EED91E00E949E1ABECF8EEDDB
:1043D00091E00E94A21AB9CF8EED91E00E94821B5B
:1043E000B4CF8EED91E00E94861BAFCF8EED91E0B1
:1043F0000E948A1BAACF8EED91E00E948E1BA5CF52
:104400008EED91E00E94A61AA0CF8EED91E00E9461
:104410001B1B9BCF8EED91E00E941F1B96CF8EED54
:1044200091E00E94AA1A91CF8EED91E00E94011CAA
:104430008CCF8EED91E00E94051C87CF8EED91E030
:104440000E94091C82CF8EED91E00E94AE1F7DCFAD
:104450008EED91E00E94262078CF8EED91E00E94B3
:10446000772073CF8EED91E00E94921B6ECF8EED80
:1044700091E00E94961B69CF8EED91E00E948B1C0B
:1044800064CF8EED91E00E948F1C5FCF8EED91E0A6
:104490000E94631D5ACF8EED91E00E946F1D55CF93
:1044A0008EED91E00E94751D50CF8EED91E00E943F
:1044B000811D4BCF8EED91E00E94871D46CF8EED82
:1044C00091E00E94931D41CF8EED91E00E94991DD5
:1044D0003CCF8EED91E00E94A51D37CF8EED91E08F
:1044E0000E94AB1D32CF8EED91E00E94B71D2DCF03
:1044F000089508950E9478220C94792208950895D1
:10450000CF93DF93FC01C0818BE0C89FC02D1124A5
:10451000D5EFDC0FC63308F0C5E36C2F8D2F0E945A
:104520007E226C2F8D2FDF91CF910C947F224F92A2
:104530005F926F927F928F929F92AF92BF92CF9233
:10454000DF92EF92FF92CF9360912D0370912E0333
:1045500080912F03909130030E9401296B017C010F
:104560000E94E6284B015C0180922D0390922E035D
:10457000A0922F03B0923003A0910403E4E0F3E093
:104580008A2F90E04FEF5FEF60E070E04C195D091B
:104590006E097F09A9132AC0809304038091320316
:1045A000C0E0811108C080915D03C82FC37019F06D
:1045B000C82FC695C6958091DD01813009F440C0B1
:1045C000882339F1823009F453C0833009F45BC089
:1045D000CF91FF90EF90DF90CF90BF90AF909F90E2
:1045E0008F907F906F905F904F900895218D328DC6
:1045F0002901712C612C441555056605770520F4B9
:1046000081509F5F3296C6CF2C0D3D1D328F218F7A
:10461000F8CF1092DE018092630390926403A0921F
:104620006503B092660389E2E4E0F3E0A7E6B3E055
:1046300001900D928A95E1F781E08093DD01C8CF6A
:104640008C2F0E946B21CC2319F20E947A228EEDCE
:1046500091E0CF91FF90EF90DF90CF90BF90AF901F
:104660009F908F907F906F905F904F900C948022DE
:10467000C093E10180915D0383708093E2010E9409
:104680000E1A83E0DACF8091310381110E94D21992
:10469000109231036091630370916403809165030C
:1046A000909166030E940129603171058105910591
:1046B00008F48ECF1092DD018BCFE0916B02F09168
:1046C0006C020995109267038FEF9FEF909381031F
:1046D0008093800390938303809382039093850358
:1046E0008093840390938703809386039093890338
:1046F0008093880390938B0380938A0390938D0318
:1047000080938C0390938F0380938E031092040305
:1047100090931E0380931D039093200380931F03A7
:104720009093220380932103909324038093230387
:104730009093260380932503909328038093270367
:1047400090932A038093290390932C0380932B0347
:104750000E94DE0D811104C00E94830E0E94DA19AE
:104760000E94CA1980915D038C7F11F40C94DA19B0
:104770000895CF93C82F882391F08091320381113F
:104780000EC00E946B211092E10180915D03837045
:104790008093E2010E940E1A83E08093DD01C093B2
:1047A0003203CF910895EDE5F3E0908121E0922767
:1047B00090831092DD0190913103892B8093310316
:1047C000089581E00C94D32390915D03937061F080
:1047D00081110BC0946090935D031092DD01809174
:1047E0003103862B809331030895883210F09C6941
:1047F000F2CF880F880F982BEECF61E00C94E42362
:10480000682F90915D039695969581E0890F883287
:1048100008F081E00C94E42381E00C940024682FDC
:1048200090915D03969596958FEF890F09F487E235
:104830000C94E42381E00C940F2490915D03937019
:1048400071F080935E0360935F03453B08F044EB97
:104850004093600380913103822B8093310308954C
:10486000ADE5B3E01196EC911197F0E0282F139687
:104870004C91139712966C91CF0108960C941D24BD
:1048800081E00C943024EDE5F3E09181282F438101
:104890006281E92FE850FF0BCF010C941D2481E0C9
:1048A0000C944324EDE5F3E0628120E1620F08F40B
:1048B0006FEF9181282F4381892F90E00C941D2464
:1048C00081E00C945224EDE5F3E0628120E1621B6B
:1048D00008F460E09181282F4381892F90E00C94A7
:1048E0001D2481E00C946324EDE5F3E0438120E195
:1048F000420F08F44FEF9181282F6281892F90E0B9
:104900000C941D2481E00C947424EDE5F3E04381C4
:1049100020E1421B08F440E09181282F6281892F19
:1049200090E00C941D2481E00C9485248093610315
:1049300080913103862B8093310308952091610388
:1049400030E1230F08F42FEF682F822F0C94962468
:1049500081E00C949E242091610330E1231B08F434
:1049600020E0682F822F0C94962481E00C94AB24D5
:104970000895FC01EE0FFF1FE80FF91FE057FC4FF1
:104980006183408322830895E0E9F3E081836083BB
:104990004283339694E0EF32F907C1F7089565E357
:1049A00070E080E993E00C947425FA01811101C054
:1049B000FB0109940F931F93CF938C01FB01C281DC
:1049C000CC2309F48FC00E941B0D82720B3CFCE5C6
:1049D0001F0709F472C060F5063CECE51E0709F4F8
:1049E00058C080F4043C9CE5190709F448C008F05D
:1049F0004BC0033C1C4509F43FC08C2FCF911F9145
:104A00000F910895083C9CE5190709F44CC008F47F
:104A100045C0093CFCE51F0709F44AC043E954E2DC
:104A200062E874E20A3C1C4541F70E94D5241EC08E
:104A3000003DECE51E0709F453C080F40D3C9CE5F5
:104A4000190709F444C0F0F10E3CFCE51F0709F416
:104A500043C00F3C1C4589F685E03FC0073D9CE5FF
:104A6000190730F482E1023D1C45B8F1C0E0C5CF22
:104A70000E351D45D9F3C1CF0E94E123F7CF4AE19E
:104A800054E26CE074E2D1CF4CE054E26AE174E2AB
:104A9000CCCF4FE454E260E474E2C7CF40E454E288
:104AA0006FE474E2C2CF41E754E260E674E2BDCF46
:104AB00040E654E261E774E2B8CF42E854E263E9C9
:104AC00074E2B3CF45EB54E268EA74E2AECF48EA51
:104AD00054E265EB74E2A9CF81E00E94FD23C6CFCA
:104AE0008DE0FBCFC1E089CF6A9A4EB14B7F5EB1BA
:104AF0005460EFB7F8949B01220F331F260F371F26
:104B0000280F391F2817390741F4EFBF8FE594E0CC
:104B10000197F1F700C000000895DC016D91CD010F
:104B200078E05EB9000000C067FF4EB9660F000074
:104B300000C000C000C04EB900C07A9591F7E2CF26
:104B40000F931F93CF93DF93C42FD22FFC01828149
:104B50008823C9F0409335030E94DA2890933403E8
:104B60008093330380E28C0F883008F050C0C77008
:104B700081E001C0880FCA95EAF7DF91CF911F91BC
:104B80000F910C940B0510913503141335C08091CF
:104B90003303909134030E94F228883C910560F51C
:104BA000C0E2CD0F1D17B9F080E2810F883040F4CC
:104BB000177081E001C0880F1A95EAF70E9412056C
:104BC000C83048F481E09D2F977001C0880F9A95F6
:104BD000EAF70E940B05802F0E940305C830B8F445
:104BE000D77081E001C0880FDA95EAF7DF91CF91A5
:104BF0001F910F910C94120580E28C0F883038F4CD
:104C0000C77081E001C0880FCA95EAF7EFCFDF9146
:104C1000CF911F910F9108950F939C01CB01243FD9
:104C20004CE5340759F1A8F4293DFCE53F0701F1B3
:104C30002A3D4CE53407D1F1283D3C4591F406E28C
:104C400021EE41EE68ED7CE50E94A02580E00F9109
:104C50000895263FFCE53F07E9F0B0F0273F3C45CB
:104C6000F9F0FC018281882339F110923503EFCFEE
:104C700007E225EE45EE69ED7CE5E6CF06E221EEA2
:104C800040EE64EF7CE5E0CF07E225EE44EE65EF11
:104C90007CE5DACF06E221EE42EE66EF7CE5D4CF8A
:104CA00007E225EE46EE67EF7CE5CECF08E221E095
:104CB00045EE6AED7CE5C8CF81E0C9CFCF93DF93A5
:104CC000EC01FB018281882309F419C1C230FCE5A3
:104CD000DF07C0F1C6319CE5D90730F09E012B5F9C
:104CE0003C452930310570F50E94F10D90934C033D
:104CF00080934B03C031ECE5DE0709F4CFC008F028
:104D00005BC0C8308CE5D80709F4B6C088F5C4305C
:104D1000ECE5DE0709F4A8C0C0F4C2308CE5D80782
:104D200009F49CC080914B038260C330DC4509F4D8
:104D300098C080914B0390914C030E94FF0D0E94FC
:104D4000840780E0DF91CF91089580914B038061CB
:104D5000C630ECE5DE0709F484C080914B0388601F
:104D6000C730DC4508F47DC080914B03806279C078
:104D7000CC308CE5D80709F489C070F480914B03DE
:104D80008C60CA30ECE5DE0709F46BC008F478C02B
:104D900080914B038E7F65C0CE308CE5D80709F437
:104DA00079C080914B038B7FCF30DC4508F459C02C
:104DB00080914B038F7E55C0CC3FECE5DE0709F4B4
:104DC00057C030F5C3318CE5D80709F46FC078F4CB
:104DD000C131ECE5DE0709F465C0C231DC4509F0FC
:104DE000A8CF0E94840780914B038F773AC0C531CA
:104DF0008CE5D80709F462C008F476C080914C03B2
:104E00008160CB3FDC4509F094CF80934C0391CF78
:104E1000C115FDE5DF0709F44DC088F480914C030E
:104E20008D7FCE3F9CE5D90781F380914C038E7F27
:104E3000CF3FDC4550F380914C038360E6CFC23016
:104E4000FDE5DF0709F459C008F444C080E0C33031
:104E5000DD4509F06ECF0E94850E6BCF80914B032C
:104E6000816080934B0365CF80914B038460F9CFC1
:104E700080914C038260C9CF80914B038064F1CF55
:104E80000E94840780914B038068EBCF80914B0395
:104E90008D7FE7CF80914B03877FE3CF80914B03DA
:104EA0008F7DDFCF80914B038F7BDBCF80914B03D6
:104EB000837FD7CF80914C038C7FA7CF80914B030A
:104EC00082FB992790F921E0922790FB82F990FBD1
:104ED00083F9C7CF80914C03982F909591708E7F66
:104EE000892B90FB81F991CF0E94840790914B030D
:104EF000892F97FB87F98058B4CF81E0ACCF81E050
:104F000021CFCF93DF93EB0186319C4511F50E94B1
:104F10001B0D9A81992399F08A7A91E009F490E027
:104F200090933603811109C089E20E94D50C0E943A
:104F30006B0D80E0DF91CF91089585E3F6CF8091EE
:104F40003603811104C089E20E94DC0CF0CF85E3B6
:104F5000FBCF81E0EFCF90933C0380933B03089518
:104F6000E0913B03F0913C03309721F00190F081F8
:104F7000E02D099480E00895E0913B03F0913C031B
:104F8000309721F00280F381E02D09940895E0919B
:104F90003B03F0913C03309739F022E0DC012C9385
:104FA0000480F581E02D0994089520913903309112
:104FB0003A032817390771F090933A038093390325
:104FC000E0913B03F0913C03309721F00680F7819C
:104FD000E02D099408952091370330913803281764
:104FE000390771F09093380380933703E0913B03C6
:104FF000F0913C03309721F00084F185E02D099475
:1050000008959C012E5F3F4FAC01485F5F4F80E0E9
:105010002417350709F40895F90191919F01992307
:10502000B9F38F5FF5CF662349F0FC0132960896FD
:105030002191261729F0E817F907D1F780E00895A4
:1050400081E008959C01FC0132969FEF80E0419140
:10505000461751F09F3F19F4411101C0982F8F5FFF
:105060008630A9F79F3F09F40895290F311D97FD58
:105070003A95F90162830895FC01329608962191D0
:10508000261303C0DF0111971C92E817F907B9F73F
:1050900008950C9422280C943C28029626E0FC01EA
:1050A00011922A95E9F70895089508950895809139
:1050B0003704843061F10E94E30280E00E94B9036A
:1050C00081E00E94B92310923D0388E190E020E442
:1050D0000FB6F894A895809360000FBE20936000EF
:1050E00083B7817F846083BF83B7816083BF7894F7
:1050F000889583B78E7F83BF0FB6F894A89580916B
:105100006000886180936000109260000FBE089577
:105110000895CF930E9455280E94B3120E948828B8
:10512000C0E08C2F0E94D411892B31F4CF5FC430A2
:10513000C1F780E0CF91089581E0FCCF08950E94EF
:1051400084070E94B0270E94B90380E00E94B9231F
:105150000C94E8021F921FB61F9211248F939F9305
:10516000AF93BF9380913D03811113C080912F04B1
:1051700090913004A0913104B09132044196A11D68
:10518000B11D80932F0490933004A0933104B09309
:105190003204BF91AF919F918F911F901FBE1F90BE
:1051A000189582E084BD93E095BD9AEF97BD8093FA
:1051B0006E0008952FB7F89480912F0490913004D9
:1051C000A0913104B09132042FBF08952FB7F89405
:1051D00060912F04709130048091310490913204D9
:1051E0002FBF08959C014FB7F89480912F049091A0
:1051F0003004A0913104B09132044FBF821B930B55
:105200000895CF92DF92EF92FF922FB7F894C0905B
:105210002F04D0903004E0903104F09032042FBF7E
:10522000A7019601261B370B480B590BCA01B90180
:10523000FF90EF90DF90CF90089578941F921FB663
:105240001F9211248F939F93AF93BF9380912F044C
:1052500090913004A0913104B09132040196A11DC7
:10526000B11D80932F0490933004A0933104B09328
:105270003204BF91AF919F918F911F901FBE1F90DD
:10528000189581E08093E00080E28093D80010922E
:10529000C9008FE19EE40197F1F700C0000087E0AC
:1052A00090EBDC018093400490934104A09342046E
:1052B000B093430488E19CE00FB6F894A8958093DE
:1052C00060000FBE90936000FFCF909375028093B3
:1052D00074020895809149030895909137049430A1
:1052E00031F580933E037093400360933F0382E067
:1052F0008093E9008FEF9091E800815095FD06C002
:1053000095ED9A95F1F700008111F5CF8091E800B5
:1053100085FF0DC050E040E063E070E08EE393E075
:105320000E94792B8091E8008E778093E8000895A1
:10533000BC0184E00C946D29BC0183E00C946D29C0
:105340009C0182E08093E9009FEF8091E8009150FA
:1053500085FD06C085ED8A95F1F700009111F5CF26
:105360008091E80085FF0CC050E040E066E070E00E
:10537000C9010E94792B8091E8008E778093E80024
:105380000895CF93DF93EC0181E08093E9008FEFE4
:105390009091E800815095FD06C095ED9A95F1F742
:1053A00000008111F5CF8091E80085FF14C050E026
:1053B00040E068E070E0CE010E94792B8091E80027
:1053C0008E778093E80088E0FE01A1E4B3E00190CD
:1053D0000D928A95E1F7DF91CF910895809136047F
:1053E000811109C00E94092D0E94662D8091E20062
:1053F00084608093E2000895109236040895089521
:105400000895089542E061EC81E00E94852C42E21B
:1054100061EC82E00C94852C80913904833009F48E
:105420005FC030F48130C1F1823009F49BC008952F
:105430008A3009F487C08B3009F46DC0893009F0D7
:105440004EC080913804813209F049C080913C04FB
:1054500090913D04029708F042C08091E800877F58
:105460008093E8008091E80082FF35C09091F300BE
:105470008091F200029729F48091F1008B7F8130B6
:1054800021F48091F100809349038091E8008B77AB
:105490008093E8000C94B92C80913804813AF9F497
:1054A0008091E800877F8093E80080913C04909190
:1054B0003D04892B61F468E081E493E070E00E9490
:1054C000C82B8091E8008B778093E800089560E016
:1054D00090E080E0F3CF809137048111C3CF08952D
:1054E00080913804813AD9F780913C0490913D0431
:1054F000892BA9F78091E800877F8093E80080914D
:10550000E80080FFFCCF8091ED018093F100809155
:10551000E8008E77BDCF80913804813201F7809109
:105520003C0490913D04892BD1F68091E800877F5F
:105530008093E8000E94B92C80913A048093ED0199
:105540000C94840780913804813249F68091E800F8
:10555000877F8093E8000E94B92C80913B04809360
:105560004A03089580913804813A09F0B8CF8091B8
:10557000E800877F8093E8008091E80080FFFCCFFF
:1055800080914A03C2CF84B7877F84BF0FB6F89457
:10559000A8958091600088618093600010926000FF
:1055A0000FBE80E890E00FB6F8948093610090936E
:1055B00061000FBE0C94AB0E0E94092D0E94662D57
:1055C000E2EEF0E080818460808378940E94EF2F87
:1055D0000E94BF0E83EE91E00C94AB2780913704BC
:1055E000853031F480913704853021F00E949F2866
:1055F0000C94C50E0E94572880913504882391F39E
:105600000E948928882371F30E94632B0E948407DB
:10561000E9CF0C940B2B292F33272330310519F1B7
:1056200068F42130310509F444C02230310509F411
:1056300045C090E080E030E020E025C02132310517
:1056400049F122323105A9F780E490E024EF34E0FB
:1056500061157105C1F08BE790E029E734E0613016
:10566000710589F0E6CF99278130910581F0009787
:1056700029F00297F1F6ECEEF3E002C0E8E2F4E084
:10568000849190E09F01FA01318320830895E0E145
:10569000F4E0F6CF89E090E02EE334E06115710587
:1056A00091F389E090E027E534E06130710559F32A
:1056B000C0CF82E190E027E634E0E5CF8BE390E0D5
:1056C0002CE234E0E0CF80E189BD82E189BD09B4FC
:1056D00000FEFDCF8091D8008F7D8093D80080910F
:1056E000E00082608093E0008091E00081FDFCCFCB
:1056F0000895AF92BF92CF92DF92FF920F931F93C4
:10570000CF93DF936C01EB018A010E94D82CF82E15
:10571000811123C00115110539F0F80180819181B3
:10572000C81BD90BC80ED91EB12CA12C2097A9F0EB
:105730008091E80085FD22C08091E8008E778093FB
:10574000E80001151105A1F0F80180819181A80EF2
:10575000B91EB182A08285E0F82E8F2DDF91CF9106
:105760001F910F91FF90DF90CF90BF90AF90089561
:105770000E94D82C8823D1F2F82EEFCFF601819128
:105780006F018093F1002197FFEFAF1ABF0ACECFD0
:10579000FC0180913E0490913F0486179707A0F08A
:1057A0006115710529F49091E8009E779093E800C7
:1057B00090E06115710551F4911108C08091E800E5
:1057C00082FF34C080E00895BC01F2CF809137049D
:1057D0008823C1F18530C1F18091E80083FD30C09C
:1057E0008091E80082FDEACF8091E80080FFE1CF60
:1057F0008091F3002091F200382F6115710519F0A6
:105800002830310558F091E02830310509F090E05A
:105810002091E8002E772093E800CBCF81918093F0
:10582000F100615071092F5F3F4FE7CF809137043E
:10583000882341F0853041F08091E80083FFBECF9E
:1058400081E0089582E0089583E00895FC0180914D
:105850003E0490913F0486179707A0F061157105EB
:1058600029F48091E8008E778093E80090E061153C
:10587000710551F4911108C08091E80082FF35C094
:1058800080E00895BC01F2CF809137048823C9F1EC
:105890008530C9F18091E80083FD31C08091E80036
:1058A00082FDEACF8091E80080FFE1CF8091F30094
:1058B0002091F200382F6115710519F0283031055B
:1058C00058F091E02830310509F090E08091E8002F
:1058D0008E778093E800CBCF84918093F10031964E
:1058E000615071092F5F3F4FE6CF809137048823C5
:1058F00041F0853041F08091E80083FFBDCF81E029
:10590000089582E0089583E00895982F973028F055
:105910008F708093E90081E008959093E900242F2F
:10592000762F50E0981731F07091EC002091ED0047
:105930005091F00021FD02C09F5FE8CF3091EB0055
:105940003E7F3093EB003091ED003D7F3093ED00D2
:105950003091EB0031603093EB007093EC002093BA
:10596000ED005093F0002091EE0027FDE5CF80E0A0
:1059700008958091380487FF13C08091E80082FF6A
:1059800006C08091E8008B778093E80004C0809186
:1059900037048111F2CF0895809137048823D9F319
:1059A0008091E80080FFF8CF8091E8008E77ECCFFF
:1059B0002091E4003091E50095E6A9012091EC00EA
:1059C000822F817020FF06C08091E80080FF06C012
:1059D00080E008952091E80022FD1AC080913704EC
:1059E000882389F0853089F08091EB0085FD0FC018
:1059F0002091E4003091E50042175307F9F29150ED
:105A0000E1F684E0089582E0089583E0089581E05E
:105A100008950E94772D0E947F2DE0EEF0E08081B6
:105A200081608083E8EDF0E080818F77808319BC0E
:105A3000A7EDB0E08C918E7F8C9380818F7E8083E8
:105A40001092360408950F931F93CF93DF930E9413
:105A5000772D0E947F2DC8EDD0E088818F778883D5
:105A600088818068888388818F7D888319BC1092A3
:105A7000370410923304109235041092340400EE6F
:105A800010E0F80180818B7F80838881816088832A
:105A900042E060E080E00E94852CE1EEF0E0808151
:105AA0008E7F8083E2EEF0E0808181608083808160
:105AB00088608083F80180818E7F80838881806107
:105AC0008883DF91CF911F910F910895E8EDF0E069
:105AD00080818F7E8083E7EDF0E08081816080832C
